:020000040800F2
:1000000000000220ED2200083D2200083F220008E7
:100010004122000843220008452200080000000099
:10002000000000000000000000000000472200085F
:1000300049220008000000004B2200084D22000861
:100040003D2300083D2300083D2300083D23000810
:100050003D23000885220008872200083D23000870
:100060003D2300083D2300083D2300083D230008F0
:100070003D2300083D2300083D2300083D230008E0
:100080003D2300083D2300083D2300080000000038
:100090000000000000000000000000003D230008F8
:1000A0003D2300083D2300083D2300083D230008B0
:1000B0003D2300083D2300083D2300083D230008A0
:1000C0003D2300083D2300083D2300083D23000890
:1000D0003D2300083D230008912200080000000095
:1000E0003D2300083D2300083D23000800000000D8
:1000F0000000000000000000000000003D23000898
:10010000000000003D2300083D2300083D230008B7
:1001100000000000000000000000000000000000DF
:100120003D2300083D2300083D2300083D2300082F
:100130003D23000800000000000000000000000057
:100140000000000000000000000000003D23000847
:100150003D2300083D2300083D2300083D230008FF
:100160003D2300083D2300080000000000000000BF
:10017000000000000000000000000000000000007F
:10018000000000003D230008000000000000000007
:080190003D2300083D23000897
:1001980010B5054C237833B9044B13B10448AFF3B9
:1001A80000800123237010BD14000020000000000F
:1001B8008823000808B5034B1BB103490348AFF374
:1001C800008008BD000000001800002088230008F7
:1001D80053B94AB9002908BF00281CBF4FF0FF31A6
:1001E8004FF0FF3000F072B9ADF1080C6DE904CEA4
:1001F80000F006F8DDF804E0DDE9022304B07047FA
:100208002DE9F047089E04468846002B4BD18A42C8
:10021800154667D9B2FA82F24AB1C2F1200701FA4B
:1002280002F320FA07F7954047EA030894404FEA9B
:10023800154E230CB8FBFEF71FFA85FC0EFB17883A
:1002480043EA084307FB0CF1994209D9EB1807F177
:10025800FF3080F01B81994240F21881023F2B4405
:100268005B1AA4B2B3FBFEF00EFB103344EA03445E
:1002780000FB0CFCA44509D92C1900F1FF3380F0D0
:100288000781A44540F2048102382C4440EA074023
:10029800A4EB0C0400271EB1D4400023C6E9004398
:1002A8003946BDE8F0878B4209D9002E00F0EB8073
:1002B8000027C6E9000138463946BDE8F087B3FA99
:1002C80083F7002F47D18B4202D3824200F2FA8093
:1002D800841A61EB030301209846002EE0D0C6E99A
:1002E8000048DDE702B9FFDEB2FA82F2002A40F0E8
:1002F8008F80491B4FEA154E1FFA85F80127B1FB7D
:10030800FEFC230C0EFB1C1143EA014308FB0CF115
:10031800994207D9EB180CF1FF3002D2994200F24A
:10032800CD808446591AA3B2B1FBFEF00EFB10141F
:1003380043EA044408FB00F8A04507D92C1900F14A
:10034800FF3302D2A04500F2B6801846A4EB080499
:1003580040EA0C409FE7C7F1200CBB4022FA0CFE94
:100368004EEA030E01FA07F420FA0CF521FA0CF311
:100378004FEA1E482543B3FBF8F92C0C08FB193348
:100388001FFA8EFA44EA034309FB0AF49C4202FA74
:1003980007F200FA07F10BD91EEB030309F1FF304E
:1003A80080F087809C4240F28480A9F1020973445E
:1003B8001B1BADB2B3FBF8F008FB103345EA03444E
:1003C80000FB0AFAA24508D91EEB040400F1FF332A
:1003D8006BD2A24569D90238744440EA0940A0FBAF
:1003E8000289A4EB0A044C45C2464B4654D351D06B
:1003F800002E69D0B1EB0A0564EB030404FA0CFC87
:10040800FD40FC404CEA0505C6E90054002747E7D3
:10041800C2F1200320FA03F7954001FA02F021FA0D
:1004280003F34FEA154E3843010CB3FBFEF71FFAEE
:1004380085F80EFB173341EA034107FB08F38B42AB
:1004480004FA02F407D9691807F1FF3C2FD28B424E
:100458002DD9023F2944CB1A81B2B3FBFEF00EFB23
:10046800103341EA034100FB08F38B4207D96918AE
:1004780000F1FF3C17D28B4215D902382944C91A1A
:1004880040EA07473BE73746304609E70746E7E6CD
:100498001846FBE64145ABD2B8EB020A69EB0E02FF
:1004A80001381346A4E76046E9E7184695E767462A
:1004B800D1E781467CE702382C4447E7ACF1020CCF
:1004C8002B442FE7384608E73746E9E6704700BF70
:1004D80010B504460E4B18784FF47A73B3FBF0F35B
:1004E8000C4A1068B0FBF3F000F094F868B90F2CD0
:1004F80001D901200AE0002221464FF0FF3000F028
:1005080049F8034B5C60002000E0012010BD00BFEB
:10051800000000201000002008B50B4B1A6842F4B8
:1005280000721A601A6842F480621A601A6842F40B
:1005380080721A60032000F01BF80020FFF7C8FF44
:1005480001F0DEFD002008BD003C0240034A1168AE
:10055800034B1B780B441360704700BF6C000020EE
:1005680000000020014B1868704700BF6C00002095
:10057800074AD36823F4E0631B041B0C000200F451
:10058800E060184340F0BF6040F40030D06070472E
:1005980000ED00E030B4174BDB68C3F30223C3F16E
:1005A8000704042C28BF04241D1D062D18D9033B5D
:1005B8004FF0FF3505FA04F421EA0401994005FAE1
:1005C80003F322EA0303194300280BDB0901C9B22C
:1005D80000F1604000F5614080F8001330BC7047BE
:1005E8000023E5E700F00F000901C9B2024B1954D6
:1005F800F4E700BF00ED00E014ED00E000F01F029A
:10060800400901239340024A42F82030704700BF56
:1006180000E100E00138B0F1807F0AD2064B586053
:10062800064AF02182F823100020986007221A60F9
:1006380070470120704700BF10E000E000ED00E0C7
:10064800042805D0054A136823F004031360704793
:10065800024A136843F004031360704710E000E097
:10066800704708B5FFF7FCFF08BD90F83530DBB2DE
:10067800022B03D08023436501207047052380F8AF
:1006880035300268136823F00103136000207047B7
:1006980000230F2B00F2C580F0B482B039E00422A9
:1006A80000E00022B2403A4302345E4E46F824206D
:1006B8005D4A1468EA4302EA04064F6817F4803F6B
:1006C80001D045EA0406584C2660646802EA04062C
:1006D8004F6817F4003F01D045EA0406524C6660A3
:1006E800A46802EA04064F6817F4801F01D045EA9F
:1006F80004064D4CA660E46822404E6816F4001FBC
:1007080001D045EA0402484CE26001330F2B00F2A5
:10071800858001229A400C6804EA0205AA42F4D1B5
:100728004C68022C01D0122C10D1DE08083650F883
:1007380026C003F00704A7000F24BC402CEA040CD1
:100748000C69BC4044EA0C0440F8264004685F0089
:100758000326BE40F64306EA040C4C6804F0030482
:10076800BC4044EA0C0404604C6804F1FF3CBCF152
:10077800010F03D9112C01D0122C10D1846806EA7C
:10078800040CCC68BC4044EA0C048460446824EA45
:1007980002024C68C4F300149C4014434460C268CD
:1007A80016408A68BA403243C2604A6812F0805FD5
:1007B800ABD0002201921D4A546C44F48044546426
:1007C800526C02F480420192019A9C08A61C154AB8
:1007D80052F8267003F0030296000F22B24027EA6F
:1007E8000207134A90423FF45CAF02F580629042E0
:1007F8000ED002F5806290420CD002F580629042E1
:100808000AD002F5806290423FF449AF072249E7D7
:10081800012247E7022245E7032243E702B0F0BC82
:100828007047704700380140003C014000380240E2
:10083800000002400369194201D1002070470120DD
:10084800704712B9090481617047816170470000DF
:1008580008B5054B5B69034200D108BD024B5861DE
:1008680000F0D6FFF9E700BF003C0140002800F087
:10087800BB8170B582B00446036813F0010F3BD00A
:10088800A74B9B6803F00C03042B2CD0A44B9B684C
:1008980003F00C03082B21D06368B3F5803F4FD0D9
:1008A800B3F5A02F52D09E4B1A6822F480321A60FA
:1008B8001A6822F480221A606368002B50D0FFF770
:1008C80051FE0546964B1B6813F4003F14D1FFF701
:1008D80049FE401B6428F5D903208AE1904B5B68E8
:1008E80013F4800FD8D08E4B1B6813F4003F03D04D
:1008F8006368002B00F07A81236813F0020F55D04B
:10090800874B9B6813F00C0F3ED0854B9B6803F018
:100918000C03082B33D0E368002B68D0814B0122ED
:100928001A60FFF71FFE05467D4B1B6813F0020F88
:1009380054D1FFF717FE401B0228F5D9032058E1D0
:10094800774A136843F480331360B5E7744B1A6829
:1009580042F480221A601A6842F480321A60ABE7C7
:10096800FFF700FE05466E4B1B6813F4003FC3D02B
:10097800FFF7F8FD401B6428F5D9032039E1684BDF
:100988005B6813F4800FC6D1654B1B6813F0020F28
:1009980004D0E368012B01D001202AE1604A1368E2
:1009A80023F0F803216943EAC1031360236813F0B5
:1009B800080F40D0636963B35B4B01221A60FFF7ED
:1009C800D1FD0546564B5B6F13F0020F33D1FFF78D
:1009D800C9FD401B0228F5D903200AE1504A1368D3
:1009E80023F0F803216943EAC1031360DEE74D4BA6
:1009F80000221A60FFF7B6FD0546494B1B6813F045
:100A0800020FD3D0FFF7AEFD401B0228F5D9032013
:100A1800EFE0454B00221A60FFF7A4FD0546404B66
:100A28005B6F13F0020F06D0FFF79CFD401B0228F6
:100A3800F5D90320DDE0236813F0040F79D0384B93
:100A48001B6C13F0805F33D100230193344B1A6C75
:100A580042F080521A641B6C03F080530193019B8F
:100A68000125324B1B6813F4807F23D0A368012B28
:100A780034D0052B38D02A4B1A6F22F001021A679E
:100A88001A6F22F004021A67A368002B36D0FFF70A
:100A980069FD0646224B1B6F13F0020F48D1FFF782
:100AA80061FD801B41F288339842F3D90320A0E00E
:100AB8000025D6E71D4A136843F480731360FFF7D7
:100AC80051FD0646194B1B6813F4807FCED1FFF702
:100AD80049FD801B0228F5D903208AE0104A136FCC
:100AE80043F001031367CFE70D4B1A6F42F004027E
:100AF8001A671A6F42F001021A67C5E7FFF732FD5D
:100B08000646074B1B6F13F0020F11D0FFF72AFDA3
:100B1800801B41F288339842F3D9032069E000BF73
:100B28000038024000004742800E474200700040F3
:100B3800E5B9A369002B5BD0304A926802F00C0239
:100B4800082A58D0022B17D02D4B00221A60FFF725
:100B580009FD0446294B1B6813F0007F42D0FFF7BC
:100B680001FD001B0228F5D9032042E0234A136C3B
:100B780023F080531364DCE7214B00221A60FFF74F
:100B8800F1FC05461D4B1B6813F0007F06D0FFF7EC
:100B9800E9FC401B0228F5D903202AE0E369226A10
:100BA8001343626A43EA8213A26A5208013A43EA8B
:100BB8000243E26A43EA0263104A5360104B01227F
:100BC8001A60FFF7CFFC04460C4B1B6813F0007F3C
:100BD80006D1FFF7C7FC001B0228F5D9032008E05F
:100BE800002006E0002004E001207047012000E01A
:100BF800002002B070BD0120FBE700BF00380240B2
:100C080060004742264B9B6803F00C03042B44D03A
:100C1800082B01D0234870472DE9F04B204B5A6828
:100C280002F03F025B6813F4800F13D01C4B596825
:100C3800C1F3881100231C48A1FB0001FFF7C8FA83
:100C4800174B5B68C3F3014301335B00B0FBF3F060
:100C5800BDE8F08B124B5B68C3F388131E46002770
:100C68005C010025E41A65EB0705A90141EA9461D6
:100C7800A001001B61EB0501CB0043EA5073C400DF
:100C8800A01943EB07018B0243EA905384022046E4
:100C980019460023FFF79CFAD2E70348704700BFC4
:100CA800003802400024F40040787D01002800F05C
:100CB8009D8070B504464F4B1B6803F00F038B42B1
:100CC80009D2CBB24B4A1370136803F00F038B425F
:100CD80001D0012070BD236813F0020F17D013F064
:100CE800040F04D0444A936843F4E05393602368A4
:100CF80013F0080F04D0404A936843F460439360AC
:100D08003D4A936823F0F003A068034393600D46BF
:100D1800236813F0010F32D06368012B21D09A1E8B
:100D2800012A25D9344A126812F0020F60D03249DC
:100D38008A6822F0030213438B60FFF713FC064610
:100D48002D4B9B6803F00C036268B3EB820F16D03F
:100D5800FFF708FC801B41F288339842F0D9032042
:100D6800B8E7254A126812F4003FE0D10120B1E744
:100D7800214A126812F0007FD9D10120AAE71D4B41
:100D88001B6803F00F03AB4209D9EAB2194B1A707A
:100D98001B6803F00F03AB4201D001209AE72368D8
:100DA80013F0040F06D0144A936823F4E053E16863
:100DB8000B439360236813F0080F07D00E4A93681B
:100DC80023F46043216943EAC1039360FFF71AFFE4
:100DD800094B9B68C3F30313084AD35CD840084BFC
:100DE80018600020FFF774FB002073E701207047AC
:100DF80001206FE7003C024000380240A0230008B1
:100E080010000020014B1868704700BF1000002038
:100E180008B5FFF7F7FF044B9B68C3F38223034A27
:100E2800D35CD84008BD00BF00380240B02300089A
:100E380008B5FFF7E7FF044B9B68C3F34233034A47
:100E4800D35CD84008BD00BF00380240B02300087A
:100E580010B4036A046A24F001040462846924F06B
:100E6800F00444EA021223F00A030B43826103628E
:100E78005DF8044B704710B4036A23F01003036253
:100E88008469036A24F4704444EA023223F0A0031C
:100E980043EA0113826103625DF8044B704783687B
:100EA80023F0700341F0070119438160704710B4C3
:100EB800846824F47F4442EA03230B43234383607A
:100EC8005DF8044B704790F83830012B7DD010B591
:100ED8000446012380F83830022380F8393002684C
:100EE800936823F47F4323F0770393600B68402BC8
:100EF80057D010D9702B3ED01FD8502B47D0602B1D
:100F080032D1CA6849680068FFF7B5FF60212068D8
:100F1800FFF7C5FF28E0102B4DD008D9202B4FD064
:100F2800302B21D130210068FFF7B9FF1CE0DBB975
:100F380000210068FFF7B3FF16E0B3F5805F0ED01D
:100F4800B3F5005F10D1CB684A6889680068FFF77D
:100F5800AEFF2268936843F48043936004E002681C
:100F6800936823F007039360012384F83930002045
:100F780084F8380010BDCB684A6889680068FFF7B4
:100F880096FF2268936843F077039360ECE7CA689A
:100F980049680068FFF75CFF50212068FFF77FFF72
:100FA800E2E7CA6849680068FFF752FF40212068F5
:100FB800FFF775FFD8E710210068FFF770FFD3E748
:100FC80020210068FFF76BFFCEE702207047000082
:100FD8000368234A90420ED0B0F1804F0BD0A2F59F
:100FE8007C42904207D002F58062904203D002F51D
:100FF8008062904203D123F070034A681343184A71
:1010080090421AD0B0F1804F17D0A2F57C4290429E
:1010180013D002F5806290420FD002F580629042B0
:101028000BD002F59A32904207D002F580629042C6
:1010380003D002F58062904203D123F44073CA685A
:10104800134303608B68C3620B688362044B984246
:1010580002D00123436170470B690363F9E700BFBE
:1010680000000140A8B110B5044690F839305BB1D2
:10107800022384F83930211D2068FFF7A9FF0123D6
:1010880084F83930002010BD80F8383001F08AF833
:10109800EEE70120704790F83830012B22D030B4A9
:1010A800012280F83820022380F839300468636808
:1010B80023F070036360046863680D682B43636002
:1010C8000468A36823F08003A3600468A3684968E0
:1010D8000B43A36080F83920002380F83830184685
:1010E80030BC7047022070470268D36823F49073BD
:1010F800D3600268536923F001035361202380F809
:101108003A30704790F83930DBB2212B2AD1836806
:10111800B3F5805F16D0036A5A1C02621A78036816
:101128005A60C38C013B9BB2C384EBB90268D36895
:1011380023F08003D3600268D36843F04003D36090
:1011480000207047036A1B880268C3F308035360D2
:1011580003691BB9036A02330362E2E7036A0133D6
:101168000362DEE702207047002070472DE9F8434C
:10117800044601680A6922F44052C36813430B61AC
:101188000168CA6822F4164222F00C0283680069DA
:10119800034360690343E06903431343CB60216859
:1011A8004A6922F44072A36913434B61E369B3F5BA
:1011B800004F60D02368B84A934200F0148102F5CA
:1011C8008062934200F00F81FFF722FE00EB80005F
:1011D80000EB80006568AD00B0FBF5F5AF4FA7FBED
:1011E80005356D092E01FFF713FE00EB800000EBBB
:1011F80080006568AD00B0FBF5F9FFF709FE00EB6C
:10120800800000EB80006568AD00B0FBF5F5A7FB3A
:1012180005356D094FF0640808FB15952D01323529
:10122800A7FB05356D0905F0F0053544FFF7F0FD1E
:1012380000EB800000EB80006668B600B0FBF6F6B5
:10124800FFF7E6FD00EB800000EB800063689B0081
:10125800B0FBF3F0A7FB0030400908FB10684FEA29
:10126800081808F13208A7FB0837C7F343172368A3
:101278002F449F600DE12368874A93425BD002F5B3
:101288008062934257D0FFF7C3FD00EB800000EB6C
:10129800800065686D00B0FBF5F5804FA7FB05354C
:1012A8006D092E01FFF7B4FD00EB800000EB800014
:1012B80065686D00B0FBF5F9FFF7AAFD00EB80004B
:1012C80000EB800065686D00B0FBF5F5A7FB053500
:1012D8006D094FF0640808FB1595ED003235A7FB42
:1012E80005356D096D0005F4F8753544FFF790FD77
:1012F80000EB800000EB800066687600B0FBF6F635
:10130800FFF786FD00EB800000EB800063685B0060
:10131800B0FBF3F3A7FB03235B0908FB13684FEA51
:10132800C80808F13208A7FB0837C7F34217236833
:101338002F449F60ADE0FFF77BFD00EB800000EBE2
:10134800800065686D00B0FBF5F5544FA7FB0535C7
:101358006D092E01FFF76CFD00EB800000EB8000AB
:1013680065686D00B0FBF5F9FFF762FD00EB8000E2
:1013780000EB800065686D00B0FBF5F5A7FB05354F
:101388006D094FF0640808FB1595ED003235A7FB91
:1013980005356D096D0005F4F8753544FFF748FD0E
:1013A80000EB800000EB800066687600B0FBF6F684
:1013B800FFF73EFD00EB800000EB800063685B00F8
:1013C800B0FBF3F3A7FB03235B0908FB13684FEAA1
:1013D800C80808F13208A7FB0837C7F34217236883
:1013E8002F449F6055E0FFF723FD00EB800000EBE2
:1013F80080006568AD00B0FBF5F5284FA7FB053503
:101408006D092E01FFF714FD00EB800000EB800052
:101418006568AD00B0FBF5F9FFF70AFD00EB800049
:1014280000EB80006568AD00B0FBF5F5A7FB05355E
:101438006D094FF0640808FB15952D013235A7FB9F
:1014480005356D0905F0F0053544FFF7F1FC00EBB3
:10145800800000EB80006668B600B0FBF6F6FFF788
:10146800E7FC00EB800000EB800063689B00B0FBAA
:10147800F3F0A7FB0030400908FB10684FEA081892
:1014880008F13208A7FB0837C7F3431723682F442E
:101498009F60BDE8F88300BF001001401F85EB5135
:1014A80058B310B5044690F839300BB3242384F8A8
:1014B80039302268D36823F40053D3602046FFF7FD
:1014C80055FE2268136923F4904313612268536917
:1014D80023F02A0353612268D36843F40053D3608E
:1014E8000020E063202384F8393084F83A3010BDB6
:1014F80080F8383000F06EFED8E70120704790F889
:101508003930DBB2202B16D1B9B1C2B190F83830DE
:10151800012B16D001628284C2840023C363212276
:1015280080F8392080F838300168CA6842F08002B3
:10153800CA60184670470220704701207047012092
:1015480070470220704790F83A30DBB2202B1BD14D
:10155800E1B1EAB190F83830012B1BD08162828565
:10156800C2850023C363222280F83A2080F83830ED
:1015780001684A6942F001024A610168CA6842F496
:101588009072CA6018467047022070470120704761
:10159800012070470220704708B50168CB6823F026
:1015A8004003CB60202380F8393000F07DFB002019
:1015B80008BD08B590F83A30DBB2222B40D18368D9
:1015C800B3F5805F0ED0036903BB03685A68836A6A
:1015D800591C81621A70C38D013B9BB2C385F3B15C
:1015E80000202EE0826A036943B903685B68C3F38D
:1015F80008031380836A02338362ECE703685B683D
:10160800DBB21380836A01338362E4E703685B68B3
:10161800826A511C816203F07F031370DBE7026862
:10162800D36823F49073D3600268536923F00103ED
:101638005361202380F83A3000F0FEF9002000E0E2
:10164800022008BD7047000010B504460268136800
:10165800D168526913F00F0005D113F0200F02D0A2
:1016680011F0200F53D1002867D012F0010202D1E7
:1016780011F4907F61D013F0010F06D011F4807F30
:1016880003D0E06B40F00100E06313F0040F04D0D6
:101698001AB1E06B40F00200E06313F0020F04D0CF
:1016A8001AB1E06B40F00400E06313F0080F04D0B7
:1016B8001AB1E26B42F00802E263E26B002A48D0FA
:1016C80013F0200F02D011F0200F24D123685B699A
:1016D80003F04003E26B12F0080F00D13BB3204641
:1016E800FFF702FD23685A6912F0400F1BD05A69B0
:1016F80022F040025A61636B8BB11A4A1A65606B1B
:10170800FEF7B3FF28B3606B036D984721E02046CE
:10171800FFF74FFF1DE02046FFF74BFFD6E72046B7
:10172800FFF790FF15E02046FFF78CFF11E02046F9
:10173800FFF788FF0023E3630BE013F0800F02D06C
:1017480011F0800F06D113F0400F02D011F0400FB6
:1017580004D110BD2046FFF7D5FCFAE72046FFF775
:101768001BFFF6E77117000808B5806B0023C385D7
:10177800C384FFF767FF08BD70B588B000240094E4
:101788001F4B1A6B42F080021A631A6B02F0800238
:101798000092009A01941A6B42F004021A631A6BC1
:1017A80002F004020192019A02941A6B42F00102BB
:1017B8001A631B6B03F001030293029B114D22462F
:1017C80020212846FFF73DF8012603960E4B049387
:1017D800059403A90D48FEF75BFF202303930496A5
:1017E8000594069403A92846FEF752FF224621468F
:1017F8000620FEF7CFFE0620FEF700FF08B070BDFA
:101808000038024000000240000031100008024089
:10181800012800D07047024B01221A70FAE700BF76
:101828003000002010B5824B9A685A6000229A60F6
:101838001B7B63B17E4B1B7B1BB37D4A5268A2F1B5
:101848000D01092912D80233794A13731CE00121CA
:101858007848FEF7EFFF0028ECD1754B00229A601C
:101868000121597319731A611A750DE0053A062A90
:1018780003D801336E4A137306E06D4B00221A73C6
:1018880002E06B4B00221A73694B1B7B013B1A2B3E
:101898002FD8DFE813F0C0002E00B3002E00A700F9
:1018A8002E009B002E008F002E0083002E00770054
:1018B8002E006B002E005F002E0053002E00470004
:1018C8002E003B002E002F002E001B00012159483E
:1018D800FEF7B0FF20B9564A136943F001031361BC
:1018E800534C012323752069A06100F005FB0023F8
:1018F800237310BD01214F48FEF79CFF0028F8D143
:101908004B4A136943F002031361F2E70121494886
:10191800FEF790FF0028ECD1454A136943F0040311
:101928001361E6E701214348FEF784FF0028E0D170
:101938003F4A136943F008031361DAE701213D4880
:10194800FEF778FF0028D4D1394A136943F0100311
:101958001361CEE701213748FEF76CFF0028C8D194
:10196800334A136943F020031361C2E70121314868
:10197800FEF760FF0028BCD12D4A136943F04003ED
:101988001361B6E701212B48FEF754FF0028B0D1B8
:10199800274A136943F080031361AAE70121254808
:1019A800FEF748FF0028A4D1214A136943F4807345
:1019B80013619EE701211F48FEF73CFF002898D1DC
:1019C8001B4A136943F40073136192E70121194814
:1019D800FEF730FF00288CD1154A136943F4806361
:1019E800136186E701211348FEF724FF002880D100
:1019F8000F4A136943F4006313617AE701210D4824
:101A0800FEF718FF00287FF474AF094A136943F4FE
:101A1800805313616DE701210648FEF70BFF00288C
:101A28007FF467AF024A136943F40053136160E718
:101A3800300000200008024008B502680B4B9A42AB
:101A480000D008BD0A4A137F0133DBB21377FF2B9E
:101A580008D0074B1B7F0122064919440648FFF7A7
:101A680072FDEEE7134600221A77F2E700440040C1
:101A78003000002074000020B4040020054A002132
:101A88005177054B4FF6FF701880917701229A70B5
:101A9800704700BF3000002008000020002304E049
:101AA80040004900C9B20133DBB2072B09D881EAEB
:101AB800102212F0800FF3D041F2210282EA400096
:101AC800EFE77047054AD37F0133DBB2D377FF2BAB
:101AD80000D0704713460022DA77FAE7300000207A
:101AE80070B5002200E00132914210DD1D4D95F8DD
:101AF8002040631CDBB285F82030865C1A4D2E55D9
:101B0800FF2BF0D1174B002483F82040EBE772B687
:101B1800144B93F821301BBB124B012283F8212070
:101B2800002200E002460F4B93F8200093F82210A1
:101B3800884210D04B1CDBB20A4880F82230501C77
:101B4800094C645C09498C54FF2BEBD1054B0022EE
:101B580083F82220E6E792B204490548FFF7CFFC54
:101B680062B670BD3000002074010020B002002071
:101B7800B404002008B5154B1B78162B00D008BDFF
:101B8800124B9B78092B1BD0112BF8D10F4BDB780C
:101B9800012B0BD0002BF2D1002220210C48FEF79C
:101BA80050FE10210B48FFF79BFFE8E70122202198
:101BB8000748FEF746FE10210748FFF791FFDEE7CA
:101BC800064B986900F098F9D9E700BFF80400209F
:101BD80000000240CC230008B82300083000002091
:101BE800F8B52B4BDA7F1B7F9A421DD0294B9B5CA3
:101BF800294A1370802B18D0402B1CD013F01002E8
:101C080007D00F2B05D91F2B03D82149897F01291C
:101C18001AD02AB90F2B03D81D4A927F012A1ED049
:101C2800FFF72CFFFFF74EFFF8BDFFF727FF184B14
:101C380001229A77F6E7164A927F012ADED1FFF74A
:101C480099FFFFF71BFFEDE7144989780129E0D1D7
:101C58001B01134A1370114B00229A70E2E70F4AD6
:101C68009278002ADCD10E4E31780B44D9B2084F55
:101C78007C7F0C4B1955094D2888FFF70FFF2880EA
:101C880001347C77002333700123AB70CAE700BFAF
:101C98003000002074000020AF030020080000205E
:101CA80073010020F804002038B50268174B9A42E7
:101CB80000D038BD164B93F8222093F82050AA4242
:101CC8001ED0002200E00246114B93F822108D42EC
:101CD80010D04B1CDBB20E4880F82230501C0D4C43
:101CE800645C0D498C54FF2BEDD1094B002283F81D
:101CF8002220E8E792B208490848FFF700FCD8E735
:101D0800034B002283F82120D3E700BF00440040A2
:101D18003000002074010020B0020020B40400202C
:101D2800FEE7000000B587B01748184B0360012391
:101D38004360002383600422C2600361FFF792F9C5
:101D480098B906A94FF4805341F8103D0E48FFF7A3
:101D5800BAF878B900230093019369460A48FFF757
:101D68009AF960B907B05DF804FB40F20F21084802
:101D7800FFF7D6FF4FF405710548FFF7D1FF40F292
:101D88001B210348FFF7CCFF740200200004004029
:101D9800E023000808B50B480B4B03604FF41653BB
:101DA800436000238360C36003610C224261836146
:101DB800C361FFF775FB00B908BD4FF40B71034809
:101DC800FFF7AEFFB404002000440040E023000801
:101DD80000B595B0002201922A4B196C41F0805150
:101DE80019641B6C03F080530193019B0292264BEC
:101DF800196841F4404119601B6803F44043029399
:101E0800029B0223089301210B9110210C910E9340
:101E18000F920822109264221192129304231393B2
:101E280008A8FEF723FD10BB0F2303930223049396
:101E3800002305934FF4805206920793032103A8C9
:101E4800FEF734FFC0B9FEF7DDFF104BA3FB0030EF
:101E5800400BFEF7DFFB0420FEF7F2FB00221146E1
:101E68004FF0FF30FEF796FB15B05DF804FB40F22B
:101E7800E7110748FFF754FF4FF4FA710448FFF7DA
:101E88004FFF00BF00380240007000405917B7D11B
:101E9800E023000808B5FEF73FFBFFF799FFFFF7BF
:101EA8006BFCFFF73FFFFFF775FF104B1B7F01220D
:101EB8000F4919440F48FFF746FB04E0FFF790FE6F
:101EC8000A4B1B7863B9094B5B6AB3F57A7FF5D384
:101ED800FFF7D4FD054B002283F828205A62EDE76E
:101EE800FFF7A0FC014B00221A70ECE7300000203D
:101EF80074000020B404002008B543F23C03984263
:101F080000F08E8020D943F60803984200F0C08084
:101F180074D843F60303984200F0AB8065D943F6C2
:101F28000503984200F0AA8043D343F6060398427B
:101F380000F0A98043F60703984240F082800F2101
:101F48005D48FFF7CDFD8EE043F207039842F6D0D7
:101F580018D943F20D03984200F0A9802ED943F214
:101F68001103984276D037D943F22003984200F003
:101F7800998043F22103984263D10F214F48FFF71C
:101F8800AFFD70E043F20303984272D00CD843F2DD
:101F98000103984263D067D8B0F5405F51D10F2153
:101FA8004748FFF79DFD5EE043F20503984265D080
:101FB80069D80F214348FFF793FD54E043F2090322
:101FC80098426AD064D343F20C03984239D10F2166
:101FD8003D48FFF785FD46E043F21003984230D1B3
:101FE8000F213A48FFF77CFD3DE043F60103984294
:101FF80035D039D8B0F5605FD1D022E043F6100370
:102008009842EDD011D943F6200398424AD01DD901
:1020180043F621039842B0D043F63C03984210D1CE
:102028000F212B48FFF75CFD1DE043F60C03984297
:10203800CDD043F60D03984239D043F609039842B0
:102048002BD00F212348FFF74BFD0CE043F611037B
:102058009842F6D10F212048FFF742FD03E00F21F7
:102068001E48FFF73DFD08BD0F211D48FFF738FD4D
:10207800F9E70F211B48FFF733FDF4E70F211A4852
:10208800FFF72EFDEFE70F211848FFF729FDEAE7D4
:102098000F211748FFF724FDE5E70F211548FFF743
:1020A8001FFDE0E70F211448FFF71AFDDBE70F21BA
:1020B8001248FFF715FDD6E750240008C024000891
:1020C8008024000820240008A0240008D024000848
:1020D8009024000800250008E0240008F0230008E8
:1020E80000240008102400083024000840240008B8
:1020F8006024000870240008B0240008F0240008B8
:1021080010B582B000240094254B5A6C42F48042EA
:102118005A645A6C02F480420092009A01941A6C34
:1021280042F080521A641B6C03F080530193019BA8
:102138000320FEF71DFA224621466FF00B00FEF73A
:1021480029FA224621466FF00A00FEF723FA2246B2
:1021580021466FF00900FEF71DFA224621466FF06E
:102168000400FEF717FA224621466FF00300FEF737
:1021780011FA224621466FF00100FEF70BFA2246BB
:1021880021464FF0FF30FEF705FA2246214605208A
:10219800FEF700FA0520FEF731FA02B010BD00BFC5
:1021A800003802400268094B9A4200D0704782B05A
:1021B80000230193064B1A6C42F002021A641B6C4E
:1021C80003F002030193019B02B070470004004032
:1021D800003802400268154B9A4200D0704710B58B
:1021E80086B00024009403F5FA331A6C42F40032E6
:1021F8001A641B6C03F400330093009B0C230193B7
:1022080002230293012303930323049307230593D3
:1022180001A90748FEF73CFA224621462620FEF788
:10222800B9F92620FEF7EAF906B010BD00440040CF
:10223800000002407047FEE7FEE7FEE7FEE7704752
:102248007047704708B5094B1B781BB1084A1368DB
:1022580001331360074B1B781BB1074A136801331E
:102268001360FEF773F9FEF7FCF908BD3D00002086
:10227800380000205800002054000020704708B59E
:102288000120FEF7E5FA08BD08B50248FFF7DCF9BA
:1022980008BD00BFB40400200F49D1F8883043F4CA
:1022A8007003C1F888300D4B1A6842F001021A60B9
:1022B800002098601A6822F0847222F480321A6032
:1022C800074A5A601A6822F480221A60D8604FF0D0
:1022D80000638B60704700BF00ED00E000380240EB
:1022E80010300024DFF834D0002103E00C4B5B5899
:1022F800435004310B480C4B42189A42F6D30B4A10
:1023080002E0002342F8043B094B9A42F9D3FFF755
:10231800C3FF00F011F8FFF7BDFD70470000022071
:1023280020250008000000201400002014000020D0
:10233800F8050020FEE7000070B50D4E0D4CA41BFB
:10234800A4100025A54209D10B4E0C4C00F018F83A
:10235800A41BA4100025A54205D170BD56F8253050
:1023680098470135EEE756F8253098470135F2E7EA
:102378001825000818250008182500081C2500083D
:10238800F8B500BFF8BC08BC9E467047F8B500BF5A
:08239800F8BC08BC9E4670472A
:1023A0000000000000000000010203040607080905
:1023B000000000000102030444696F6461207A6137
:1023C00070616C6F6E610A0D0000000044696F64FB
:1023D00061207A6761737A6F6E610A0D00000000F8
:1023E0002E2E2F5372632F6D61696E2E63000000D5
:1023F0005069657277737A7920202020200A0D00B9
:10240000447275676920202020202020200A0D00BA
:1024100054727A656369202020202020200A0D0054
:10242000437A77617274792020202020200A0D00E1
:10243000506961747920202020202020200A0D007E
:10244000537A6F737479202020202020200A0D00F9
:1024500053696F646D79202020202020200A0D0010
:102460004F736D792020202020202020200A0D008D
:10247000447A69657769617479202020200A0D000B
:102480005A65726F2020202020202020200A0D0075
:1024900054656C6567617A6574612020200A0D00BF
:1024A000576C61637A6E696B20202020200A0D0032
:1024B0004B616E616C202B2020202020200A0D0013
:1024C0004B616E616C202D2020202020200A0D0001
:1024D000566F6C202B20202020202020200A0D0069
:1024E000566F6C202D20202020202020200A0D0057
:1024F0004D7574652020202020202020200A0D000A
:102500004272616B20776369736E6965630A0D00BF
:08251000F8DCFF7F0100000070
:04251800BD010008F9
:04251C009901000819
:102520000100000010000000FFFF01001027000064
:0425300000E1F505CC
:04000005080022EDE0
:00000001FF
